:020000040800F2
:10000000000002201D1D0008B9070008BB070008FA
:10001000BD070008BF070008C10700080000000076
:10002000000000000000000000000000C3070008FE
:10003000C507000800000000C7070008C90700083E
:100040006D1D00086D1D00086D1D00086D1D000868
:100050006D1D00086D1D00086D1D00086D1D000858
:100060006D1D00086D1D0008D10700086D1D0008FA
:100070006D1D00086D1D00086D1D00086D1D000838
:100080006D1D00086D1D00086D1D00086D1D000828
:100090006D1D00086D1D00086D1D00086D1D000818
:1000A0006D1D00086D1D00086D1D00086D1D000808
:1000B0006D1D00086D1D00086D1D00086D1D0008F8
:1000C0006D1D00086D1D00086D1D0008DD0700088E
:1000D0006D1D00086D1D00086D1D00086D1D0008D8
:1000E0006D1D00086D1D00086D1D00086D1D0008C8
:1000F0006D1D00086D1D00086D1D00086D1D0008B8
:100100006D1D00086D1D00086D1D00086D1D0008A7
:100110006D1D00086D1D00086D1D00086D1D000897
:100120006D1D00086D1D00086D1D00086D1D000887
:100130006D1D000800000000000000006D1D00089B
:100140006D1D00086D1D00086D1D00086D1D000867
:100150006D1D00086D1D00086D1D00086D1D000857
:100160006D1D00086D1D00086D1D00086D1D000847
:100170006D1D00086D1D00086D1D000800000000C9
:10018000000000006D1D00080000000000000000DD
:100190006D1D000800000000000000006D1D00083B
:1001A0000000000000000000000000006D1D0008BD
:1001B0006D1D00086D1D00086D1D00086D1D0008F7
:0401C0006D1D0008A9
:1001C40010B5054C237833B9044B13B10448AFF38D
:1001D40000800123237010BD0C00002000000000EB
:1001E400C81D000808B5034B1BB103490348AFF30E
:1001F400008008BD0000000010000020C81D000899
:1002040053B94AB9002908BF00281CBF4FF0FF3179
:100214004FF0FF3000F074B9ADF1080C6DE904CE75
:1002240000F006F8DDF804E0DDE9022304B07047CD
:100234002DE9F047089D04468E46002B4DD18A4295
:10024400944669D9B2FA82F252B101FA02F3C2F1C8
:10025400200120FA01F10CFA02FC41EA030E944059
:100264004FEA1C48210CBEFBF8F61FFA8CF708FB7A
:1002740016E341EA034306FB07F199420AD91CEB52
:10028400030306F1FF3080F01F81994240F21C8184
:10029400023E63445B1AA4B2B3FBF8F008FB1033CC
:1002A40044EA034400FB07F7A7420AD91CEB040401
:1002B40000F1FF3380F00A81A74240F207816444D1
:1002C400023840EA0640E41B00261DB1D440002356
:1002D400C5E900433146BDE8F0878B4209D9002DBA
:1002E40000F0EF800026C5E9000130463146BDE844
:1002F400F087B3FA83F6002E4AD18B4202D38242AE
:1003040000F2F980841A61EB030301209E46002D5C
:10031400E0D0C5E9004EDDE702B9FFDEB2FA82F2B1
:10032400002A40F09280A1EB0C014FEA1C471FFA0F
:100334008CFE0126200CB1FBF7F307FB131140EAF6
:1003440001410EFB03F0884208D91CEB010103F1C3
:10035400FF3802D2884200F2CB804346091AA4B285
:10036400B1FBF7F007FB101144EA01440EFB00FE59
:10037400A64508D91CEB040400F1FF3102D2A645BE
:1003840000F2BB800846A4EB0E0440EA03409CE75D
:10039400C6F12007B34022FA07FC4CEA030C20FA0A
:1003A40007F401FA06F31C43F9404FEA1C4900FA2A
:1003B40006F3B1FBF9F8200C1FFA8CFE09FB1811A7
:1003C40040EA014108FB0EF0884202FA06F20BD91A
:1003D4001CEB010108F1FF3A80F08880884240F26A
:1003E4008580A8F102086144091AA4B2B1FBF9F0AE
:1003F40009FB101144EA014100FB0EFE8E4508D9A9
:100404001CEB010100F1FF346CD28E456AD902382D
:10041400614440EA0840A0FB0294A1EB0E01A14212
:10042400C846A64656D353D05DB1B3EB080261EB80
:100434000E0101FA07F722FA06F3F1401F43C5E95A
:10044400007100263146BDE8F087C2F12003D84090
:100454000CFA02FC21FA03F3914001434FEA1C47D2
:100464001FFA8CFEB3FBF7F007FB10360B0C43EAC4
:10047400064300FB0EF69E4204FA02F408D91CEB74
:10048400030300F1FF382FD29E422DD90238634472
:100494009B1B89B2B3FBF7F607FB163341EA034112
:1004A40006FB0EF38B4208D91CEB010106F1FF3861
:1004B40016D28B4214D9023E6144C91A46EA004658
:1004C40038E72E46284605E70646E3E61846F8E6EA
:1004D4004B45A9D2B9EB020864EB0C0E0138A3E733
:1004E4004646EAE7204694E74046D1E7D0467BE714
:1004F400023B614432E7304609E76444023842E78C
:10050400704700BF70B58AB0002405940694079420
:10051400089409940194274B1A6B42F004021A635D
:100524001A6B02F004020192019A02941A6B42F0CF
:1005340080021A631A6B02F080020292029A0394F8
:100544001A6B42F001021A631A6B02F00102039261
:10055400039A04941A6B42F002021A631B6B03F0B1
:1005640002030493049B144D22464CF206012846D0
:1005740001F02AFA102305934FF40413069301267D
:10058400079605A90D4801F033F94CF206030593CB
:1005940006960794089405A9284601F029F92246ED
:1005A40021460A2001F04AFA0A2001F07FFA0AB033
:1005B40070BD00BF00380240000402400000024049
:1005C40010B52B4C0A23012221462A4800F0FDFBDA
:1005D400227842F0010328490B709A422ED000225F
:1005E4000421264801F0F0F9214B1A7842F0020365
:1005F40021490B709A4227D0002202211F4801F0A2
:10060400E3F91B4B1A7842F004031B490B709A421E
:1006140020D000224FF48041184801F0D5F9144B42
:100624001A7842F0080314490B709A4219D0002238
:100634004FF40041114801F0C7F910BD0122042113
:100644000E4801F0C1F9CFE7012202210B4801F065
:10065400BBF9D6E701224FF48041084801F0B4F910
:10066400DDE701224FF40041044801F0ADF9E4E76D
:10067400C400002028000020C5000020000402401F
:1006840072B6FEE708B50D480D4B036000234360C6
:100694008360C36002220261012242614FF400724E
:1006A400826180220262436283620A23C36200F091
:1006B40011FA00B908BDFFF7E3FF00BF28000020CE
:1006C4000030014008B50A480A4B03604FF4E13397
:1006D400436000238360C36003610C224261836131
:1006E400C36101F0DFFA00B908BDFFF7C9FF00BF1D
:1006F400800000200044004000B595B03422002161
:1007040007A801F057FB0023029303930493059376
:10071400069300931F4A116C41F080511164126CCE
:1007240002F080520092009A01931B490A6822F455
:10073400404242F480420A600A6802F44042019254
:10074400019A0222079201210A9110210B910D9224
:100754000E9308230F938023109304231193129272
:10076400139207A800F022FE80B90F2302930221FE
:100774000391002304934FF480520592069302A838
:1007840000F07EFC20B915B05DF804FBFFF778FF9C
:10079400FFF776FF003802400070004008B501F012
:1007A400CDF9FFF7A9FFFFF7ADFEFFF76BFFFFF7EA
:1007B40089FFFEE7FEE7FEE7FEE7FEE7FEE7704798
:1007C4007047704708B501F0D3F908BD08B510208B
:1007D40001F000F908BD000008B5024800F0B6FBBE
:1007E40008BD00BF2800002082B0002100910B4BFF
:1007F4005A6C42F480425A645A6C02F48042009269
:10080400009A01911A6C42F080521A641B6C03F036
:1008140080530193019B02B0704700BF003802402F
:1008240010B588B0002303930493059306930793AC
:100834000268184B9A4201D008B010BD00240194FC
:1008440003F584335A6C42F480525A645A6C02F4AD
:1008540080520192019A02941A6B42F001021A63C7
:100864001B6B03F001030293029BE0230393022317
:100874000493032306930523079303A9064800F072
:10088400B7FF22462146232001F0D8F8232001F0A7
:100894000DF9D1E7003001400000024000B589B0F5
:1008A4000023039304930593069307930268154B5F
:1008B4009A4202D009B05DF804FB0021019103F5CE
:1008C400FA331A6C42F400321A641A6C02F40032DD
:1008D4000192019A02911A6B42F001021A631B6B96
:1008E40003F001030293029B0C230393022304935A
:1008F400032306930723079303A9034800F078FF13
:10090400D8E700BF00440040000002402DE9F04752
:1009140082B00546884617461E4601F035F90A9B03
:100924001B1A03EB060901F02FF982462B4B1B68B7
:10093400C3F3CB3309FB03F301932B689C6838EAB8
:1009440004030CBF4FF0010C4FF0000CBC4540D029
:10095400B6F1FF3FF1D001F017F9A0EB0A004845CA
:100964000AD2B9F1000F07D0019A02B14A46019B9D
:10097400013B01939146E0E72A68536823F0E003C2
:1009840053606B68B3F5827F0BD0AB6AB3F5005F3D
:1009940014D0012385F85130002385F8503003200A
:1009A40018E0AB68B3F5004F02D0B3F5806FECD11B
:1009B4002A68136823F040031360E6E72A68136883
:1009C40023F4005313602A68136843F4005313603C
:1009D400DFE7002002B0BDE8F08700BF0800002078
:1009E40010B584B00446164B1868164BA3FB0030B0
:1009F400400D4FF47A7303FB00F003906368B3F582
:100A0400827F0BD0039BBBB1039B013B0393236801
:100A14009B6813F0800FF5D100200EE000920B4686
:100A2400002280212046FFF771FF30B1636D43F04F
:100A340020036365032000E0002004B010BD00BF64
:100A440008000020819F5E1610B582B004460B4654
:100A54004168B1F5827F14D06168B1F5827F2AD1F3
:100A6400A168B1F5806F19D0009200228021204640
:100A7400FFF74CFF30B3636D43F02003636503203D
:100A840020E08168B1F5004F02D0B1F5806FE3D169
:100A94002068016821F040010160DDE70092002236
:100AA40001212046FFF732FF60B1636D43F020035C
:100AB4006365032006E00092002201212046FFF72F
:100AC40025FF08B902B010BD636D43F020036365D0
:100AD4000320F7E700285AD010B50446436A33B917
:100AE4004368B3F5827F05D00023C36102E000238D
:100AF400036143610023A36294F85130002B40D07A
:100B0400022384F851302268136823F040031360F1
:100B1400636803F48273A26802F404421343E26834
:100B240002F400621343226902F002021343626971
:100B340002F001021343A26902F400721343E26952
:100B440002F038021343226A02F080021343A26ABD
:100B540002F40052216813430B60638B03F0040317
:100B6400626A02F01002216813434B602268D36961
:100B740023F40063D36100206065012384F85130BD
:100B840010BD84F850302046FFF74AFEB8E7012034
:100B940070472DE9F04383B01F460A9D90F850300A
:100BA400012B00F01081044688469146012380F809
:100BB400503000F0E9FF064694F85130DBB2626829
:100BC400012B0AD0B2F5827F40F0E380A268002AAC
:100BD40040F0E980042B40F0E880B8F1000F00F009
:100BE400E680B9F1000F00F0E480002F00F0E3800C
:100BF40094F85130DBB2042B02D0052384F8513031
:100C040000236365C4F83890E787A787C4F8308069
:100C1400E786A7862364636423681A6812F0400F8A
:100C240003D11A6842F040021A60E368B3F5006F1A
:100C340011D063680BB1012F0BD1226B236812789A
:100C44001A73236B01332363E38E9BB2013B9BB284
:100C5400E38601276BE063680BB1012F0BD1226B94
:100C640023681288DA60236B02332363E38E9BB21A
:100C7400013B9BB2E38601271CE023689A6812F0CB
:100C8400010F0ED0E28F92B25AB1DA68A36B1A80C8
:100C9400A36B0233A363E38F9BB2013B9BB2E38755
:100CA400012700F071FF801BA84203D3B5F1FF3F79
:100CB40040F08380E38E9BB21BB9E38F9BB2002B81
:100CC40053D023689A6812F0020FD6D0E28E92B203
:100CD400002AD2D0002FD0D0226B1288DA60236B86
:100CE40002332363E38E9BB2013B9BB2E38600276E
:100CF400C3E723689A6812F0010F0ED0E28F92B214
:100D04005AB1DA68A36B1A70A36B0133A363E38F40
:100D14009BB2013B9BB2E387012700F035FF831BA5
:100D2400AB4202D3B5F1FF3F49D1002D49D0E38E48
:100D34009BB213B9E38F9BB2BBB123689A6812F0DC
:100D4400020FD6D0E28E92B2002AD2D0002FD0D099
:100D5400226B12781A73236B01332363E38E9BB2E5
:100D6400013B9BB2E3860027C3E73246294620466F
:100D7400FFF736FE48B9A36863B901932368DA68BC
:100D840001929B680193019B04E020236365012089
:100D940000E00220012384F85130002384F850300D
:100DA40003B0BDE8F0830220F4E70220F2E701205B
:100DB400F0E70120EEE70120ECE70320EAE7032057
:100DC400E8E70320E6E70220EAE72DE9F04383B0F1
:100DD4000446884691461D464068B0F5827F38D067
:100DE40094F85030012B00F0AE80012384F8503089
:100DF40000F0CAFE074694F85160F6B2012E40F0A6
:100E04008F80B8F1000F00F08C80B9F1000F00F072
:100E14008880042384F8513000236365C4F8388043
:100E2400A4F83C90A4F83E902363A386E38623644D
:100E34006364A368B3F5004F19D023681A6812F0ED
:100E4400400F03D11A6842F040021A60E3681BB3F2
:100E540041E0A368002BC3D1042384F851300095EA
:100E640013460A462046FFF794FE06465FE02268D2
:100E7400136823F0400313602268136823F480434B
:100E84001360DAE700F080FEC01BA84202D3B5F17C
:100E9400FF3F50D1002D50D0E38F9BB2002B33D0B5
:100EA40023689A6812F0010FECD0A26B1B7B1370BD
:100EB400A36B0133A363E38F9BB2013B9BB2E38734
:100EC400EAE700F061FEC01BA84202D3B5F1FF3F80
:100ED40035D1002D35D0E38F9BB2ABB123689A682E
:100EE40012F0010FEDD0DA68A36B1A80A36B023302
:100EF400A363B4F83EC01FFA8CFC0CF1FF3C1FFA4C
:100F04008CFCA4F83EC0E6E73A4629462046FFF7A3
:100F14009BFD08B120236365636D13B9002600E0CF
:100F24000226012384F85130002384F850303046DF
:100F340003B0BDE8F0830326F3E70326F1E70326B5
:100F4400EFE70326EDE70226F1E7704730B585B0F9
:100F54000446026851689368C3F3801013F0400F8D
:100F640005D113F0010F02D011F0400F69D113F035
:100F7400020F02D011F0800F67D1C3F3401513F0B4
:100F8400200F03D110B913F4807F61D011F0200F2A
:100F94005ED078B194F85100C0B203285AD0606D85
:100FA40040F00400606500200090D06800909068D4
:100FB4000090009865B1606D40F00100606500200C
:100FC400029090680290106820F040001060029A2D
:100FD40013F4807F09D0636D43F008036365002335
:100FE400039323689B680393039B636D002B2FD0AB
:100FF4002268536823F0E0035360012384F85130DE
:1010040011F0030F2ED02268536823F003035360BA
:10101400E36C4BB1154A1A65E06C00F0E9FC18B1B9
:10102400636D43F040036365A36C8BB10F4A1A658B
:10103400A06C00F0DDFC58B1636D43F040036365C0
:1010440006E0236C2046984702E0636C20469847EC
:1010540005B030BD00230193D368019393680193D5
:10106400019BF5E72046FFF770FFF1E775100008D4
:1010740008B5806B0023C387C386FFF766FF08BDEE
:10108400002800F09B8070B50D4604464F4B1B684A
:1010940003F00F038B4208D2CBB24C4A137013688F
:1010A40003F00F038B4240F08B80236813F0020F90
:1010B40017D013F0040F04D0454A936843F4E05367
:1010C4009360236813F0080F04D0414A936843F4F3
:1010D400604393603E4A936823F0F003A1680B4396
:1010E4009360236813F0010F32D06368012B21D081
:1010F4009A1E012A25D9364A126812F0020F61D0CD
:1011040033498A6822F0030213438B6000F03CFDEC
:1011140006462F4B9B6803F00C036268B3EB820F07
:1011240016D000F031FD801B41F288339842F0D98B
:10113400032042E0264A126812F4003FE0D1012065
:101144003BE0234A126812F0007FD9D1012034E039
:101154001E4B1B6803F00F03AB4207D9EAB21B4BCB
:101164001A701B6803F00F03AB422DD1236813F0F0
:10117400040F06D0164A936823F4E053E1680B4346
:101184009360236813F0080F07D0114A936823F47F
:101194006043216943EAC103936000F047F80C4BB4
:1011A4009B68C3F303130B4AD35CD8400A4B186003
:1011B4000A4B186800F09CFC002070BD01207047A9
:1011C4000120FAE70120F8E70120F6E7003C02409D
:1011D40000380240E01D0008080000200400002040
:1011E400014B1868704700BF0800002008B5FFF7DE
:1011F400F7FF044B9B68C3F38223034AD35CD840B4
:1012040008BD00BF00380240F01D000808B5FFF714
:10121400E7FF044B9B68C3F34233034AD35CD840D3
:1012240008BD00BF00380240F01D000808B55C4B43
:101234009B6803F00C03082B07D00C2B5BD0042B0A
:1012440001D0584808BD5848FCE7554B5A6802F08D
:101254003F025B6813F4800F2AD0514B5968C1F3E5
:10126400881C4FEA4C11B1EB0C006EEB0E0E4FEAEA
:101274008E1343EA90638101091A63EB0E03DB00CA
:1012840043EA5173C90011EB0C0C43F100035902FA
:1012940000234FEA4C2041EADC51FEF7B1FF404BFA
:1012A4005B68C3F3014301335B00B0FBF3F0C9E7B0
:1012B4003B4B5968C1F3881C4FEA4C11B1EB0C004D
:1012C4006EEB0E0E4FEA8E1343EA90638101091A06
:1012D40063EB0E03DB0043EA5173C90011EB0C0C02
:1012E40043F10003990200234FEA8C2041EA9C5108
:1012F400FEF786FFD3E72A4B5A6802F03F025B6889
:1013040013F4800F28D0264B5968C1F3881C4FEA88
:101314004C11B1EB0C006EEB0E0E4FEA8E1343EA48
:1013240090638101091A63EB0E03DB0043EA5173F6
:10133400C90011EB0C0C43F10003590200234FEADE
:101344004C2041EADC51FEF75BFF154B5B68C3F3AD
:101354000273B0FBF3F075E7114B5968C1F3881CB5
:101364004FEA4C11B1EB0C006EEB0E0E4FEA8E13EC
:1013740043EA90638101091A63EB0E03DB0043EA3D
:101384005173C90011EB0C0C43F1000399020023C3
:101394004FEA8C2041EA9C51FEF732FFD5E700BFAB
:1013A400003802400024F40000127A00002800F003
:1013B400018270B582B00446036813F0010F41D076
:1013C400994B9B6803F00C03042B32D0964B9B681B
:1013D40003F00C03082B27D0934B9B6803F00C03FA
:1013E4000C2B59D06368B3F5803F5BD0B3F5A02FC5
:1013F4005ED08D4B1A6822F480321A601A6822F487
:1014040080221A606368002B5CD000F0BDFB0546A7
:10141400854B1B6813F4003F14D100F0B5FB401B4F
:101424006428F5D90320CCE17F4B5B6813F4800F6B
:10143400D2D07D4B1B6813F4003F03D06368002BAC
:1014440000F0BA81236813F0020F60D0764B9B68DA
:1014540013F00C0F4AD0744B9B6803F00C03082B59
:101464003FD0714B9B6803F00C030C2B69D0E368ED
:10147400002B75D06D4B01221A6000F085FB0546E8
:10148400694B1B6813F0020F61D100F07DFB401B18
:101494000228F5D9032094E1634B5B6813F4800FB1
:1014A400A0D0C6E7604A136843F480331360A9E709
:1014B4005D4B1A6842F480221A601A6842F4803242
:1014C4001A609FE700F060FB0546574B1B6813F456
:1014D400003FB7D000F058FB401B6428F5D9032027
:1014E4006FE1514B5B6813F4800FBAD14E4B1B680C
:1014F40013F0020F03D0E368012B40F05F814A4AE6
:10150400136823F0F803216943EAC10313602368D5
:1015140013F0080F49D06369002B33D0434B0122E9
:10152400C3F8802E00F030FB05463F4B5B6F13F091
:10153400020F3AD100F028FB401B0228F5D9032002
:101544003FE1394B5B6813F4800F90D1CEE7364A04
:10155400136823F0F803216943EAC1031360D6E753
:10156400324B00221A6000F00FFB05462E4B1B681D
:1015740013F0020FCBD000F007FB401B0228F5D973
:1015840003201EE1294B0022C3F8802E00F0FCFA50
:101594000546254B5B6F13F0020F06D000F0F4FAFA
:1015A400401B0228F5D903200BE1236813F0040F34
:1015B40076D01D4B1B6C13F0805F33D10023019355
:1015C400194B1A6C42F080521A641B6C03F080535E
:1015D4000193019B0125164B1B6813F4807F29D0CE
:1015E400A368012B3AD0052B3ED00F4B1A6F22F083
:1015F40001021A671A6F22F004021A67A368002B0B
:101604003CD000F0C1FA0646074B1B6F13F0020FE3
:1016140045D100F0B9FA801B41F288339842F3D9DE
:101624000320CEE00025D6E7003802400000474200
:10163400007000406B4A136843F48073136000F039
:10164400A3FA0646674B1B6813F4807FC8D100F0E9
:101654009BFA801B0228F5D90320B2E0624A136F7B
:1016640043F001031367C9E75F4B1A6F42F00402AA
:101674001A671A6F42F001021A67BFE700F084FA92
:101684000646594B1B6F13F0020F08D000F07CFA8A
:10169400801B41F288339842F3D9032091E0EDB9DD
:1016A400A369002B00F08C804F4A926802F00C0270
:1016B400082A54D0022B17D04C4B00221A6600F093
:1016C40063FA0446484B1B6813F0007F45D000F0D2
:1016D4005BFA001B0228F5D9032072E0424A136C1E
:1016E40023F080531364DBE7404B00221A6600F0BA
:1016F4004BFA05463C4B1B6813F0007F06D000F004
:1017040043FA401B0228F5D903205AE0E369226A10
:101714001343626A43EA8213A26A5208013A43EA13
:101724000243E26A43EA0263226B43EA02732E4AEB
:1017340053602E4B01221A6600F026FA04462A4B07
:101744001B6813F0007F06D100F01EFA001B02286C
:10175400F5D9032035E0002033E0002031E0012BEF
:1017640031D0214B5B6803F48001E26991422CD1B2
:1017740003F03F02216A8A4229D1616A47F6C072A6
:101784001A40B2EB811F24D103F44031A26A5208FB
:10179400013AB1EB024F1ED103F07062E16AB2EB81
:1017A400016F1AD103F0E043226BB3EB027F16D131
:1017B400002006E001207047012002E0012000E043
:1017C400002002B070BD0120FBE70120F9E70120F1
:1017D400F7E70120F5E70120F3E70120F1E7012015
:1017E400EFE700BF007000400038024000004742AD
:1017F40000230F2B00F2DE8070B582B060E08568B4
:101804005E000324B44025EA0405CC68B4402C43AC
:101814008460456825EA02054C68C4F300129A40C6
:101824002A4342605AE0DC08083450F8246003F08C
:10183400070295000F22AA4026EA020E0A69AA406E
:1018440042EA0E0240F824205CE0062200E0002276
:1018540002FA0EF22A430234574D45F82420574A1F
:1018640094686FEA0C0224EA0C054E6816F4801F93
:1018740001D04CEA0405514CA560E46802EA040571
:101884004E6816F4001F01D04CEA04054B4CE56089
:10189400646802EA04054E6816F4003F01D04CEA7D
:1018A4000405464C6560246822404D6815F4803F69
:1018B40001D04CEA0402414C226001330F2B77D84B
:1018C40001229A400C6804EA020C32EA0404F4D1BE
:1018D4004C6804F00304013C012C90D94A6802F0DE
:1018E4000302032A09D0C4685D000322AA4024EA43
:1018F40002048A68AA402243C2604A6802F00302D2
:10190400022A90D004684FEA430E032202FA0EF230
:1019140024EA02044A6802F0030202FA0EF22243A5
:1019240002604A6812F4403FC7D000220192244A60
:10193400546C44F480445464526C02F48042019226
:10194400019A9C08A51C1C4A52F8255003F0030276
:101954004FEA820E0F2202FA0EF225EA0205194A14
:1019640090423FF474AF02F58062904216D002F5C3
:101974008062904214D002F58062904212D002F547
:101984008062904210D002F5806290420ED002F53F
:10199400806290423FF459AF072259E7012257E78A
:1019A400022255E7032253E7042251E705224FE7B9
:1019B40002B070BD704700BF00380140003C0140D8
:1019C40000380240000002400AB1816170470904F6
:1019D4008161704708B5054B5B69034200D108BDBE
:1019E400024B5861FEF7ECFDF9E700BF003C0140F3
:1019F40090F83530DBB2022B03D0802343650120FD
:101A04007047052380F835300268136823F001031A
:101A14001360002070470000074AD36823F4E06392
:101A24001B041B0C000200F4E060034343F0BF639B
:101A340043F40033D360704700ED00E000B5194B68
:101A4400DB68C3F30223C3F1070CBCF1040F28BF06
:101A54004FF0040C03F1040EBEF1060F18D9033B3A
:101A64004FF0FF3E0EFA0CFC21EA0C0199400EFAED
:101A740003F322EA0303194300280BDB0901C9B26B
:101A840000F1604000F5614080F800135DF804FB4C
:101A94000023E5E700F00F000901C9B2024B195415
:101AA400F4E700BF00ED00E014ED00E0002807DBE0
:101AB40000F01F02400901239340024A42F82030FB
:101AC400704700BF00E100E00138B0F1807F0BD225
:101AD4004FF0E0235861054AF02182F823100020DA
:101AE400986107221A6170470120704700ED00E0F9
:101AF40010B504460E4B18784FF47A73B3FBF0F329
:101B04000C4A1068B0FBF3F0FFF7DEFF68B90F2C46
:101B140001D901200AE0002221464FF0FF30FFF7EF
:101B24008DFF054B1C60002000E0012010BD00BFAC
:101B340000000020080000200400002008B50B4B22
:101B44001A6842F400721A601A6842F480621A60D9
:101B54001A6842F480721A600320FFF75DFF0F20B9
:101B6400FFF7C6FFFEF740FE002008BD003C024020
:101B7400034A1168034B1B780B441360704700BF82
:101B8400C800002000000020014B1868704700BF07
:101B9400C800002038B504460268136923F4405392
:101BA400C1680B4313618368026913434269134399
:101BB400C2691A430168CB6823F4164323F00C036B
:101BC4001343CB600268536923F4407381690B4368
:101BD40053610368314A934206D002F5806293420E
:101BE40002D0FFF703FB01E0FFF710FBE369B3F555
:101BF400004F29D00021031849411B1841F100016D
:101C0400C90041EA5371DB00181863684FEA830284
:101C14004FEA937341F10001FEF7F2FA204DA5FB60
:101C240000325109642303FB11031B013233A5FB6A
:101C340003235B0903F0F00202EB011203F00F032C
:101C4400216813448B6038BD0023021843EB030161
:101C5400121841F10001C90041EA5271D200101872
:101C640041F10001626892185B41FEF7C9FA0C4D1C
:101C7400A5FB00325109642303FB1103DB0032335B
:101C8400A5FB03235B095A0002F4F87202EB01126C
:101C940003F00703216813448B60D4E7001001406C
:101CA4001F85EB5158B310B5044690F83D300BB383
:101CB400242384F83D302268D36823F40053D3608E
:101CC4002046FFF767FF2268136923F490431361EA
:101CD4002268536923F02A0353612268D36843F4CA
:101CE4000053D36000202064202384F83D3084F81E
:101CF4003E3010BD80F83C30FEF7D0FDD8E701201F
:101D040070470000034AD2F8883043F47003C2F8E5
:101D14008830704700ED00E0DFF834D00D480E49FC
:101D24000E4A002302E0D458C4500433C4188C4231
:101D3400F9D30B4A0B4C002301E013600432A24296
:101D4400FBD3FFF7DFFF00F011F8FEF727FD704724
:101D540000000220000000200C000020081E0008E3
:101D64000C000020CC000020FEE7000070B50D4DF3
:101D74000D4C641BA4100026A64209D10B4D0C4C3B
:101D840000F020F8641BA4100026A64205D170BD03
:101D940055F8043B98470136EEE755F8043B98475D
:101DA4000136F2E7001E0008001E0008001E0008AD
:101DB400041E000802440346934200D1704703F80E
:101DC400011BF9E7F8B500BFF8BC08BC9E46704794
:0C1DD400F8B500BFF8BC08BC9E46704784
:101DE00000000000000000000102030406070809CB
:081DF0000000000001020304E1
:081DF8003CE4FF7F0100000044
:041E0000E9010008EC
:041E0400C50100080C
:0C1E080001000000100000000024F400A5
:0400000508001D1DB5
:00000001FF
