:020000040800F2
:1000000000000220F9200008FD090008FF0900088F
:10001000010A0008030A0008050A000800000000A1
:10002000000000000000000000000000070A0008B7
:10003000090A0008000000000B0A00080D0A000869
:1000400049210008492100084921000849210008E8
:1000500049210008492100084921000849210008D8
:1000600049210008492100084921000849210008C8
:1000700049210008492100084921000849210008B8
:1000800049210008492100084921000849210008A8
:100090004921000849210008492100084921000898
:1000A0004921000849210008492100084921000888
:1000B0004921000849210008492100084921000878
:1000C0004921000849210008492100084921000868
:1000D0004921000849210008492100084921000858
:1000E0004921000849210008492100084921000848
:1000F0004921000849210008492100084921000838
:100100004921000849210008492100084921000827
:100110004921000849210008492100084921000817
:100120004921000849210008492100084921000807
:1001300049210008000000000000000049210008DB
:1001400049210008492100084921000849210008E7
:1001500049210008492100084921000849210008D7
:1001600049210008492100084921000849210008C7
:100170004921000849210008492100080000000029
:1001800000000000492100080000000000000000FD
:10019000492100080000000000000000492100087B
:1001A00000000000000000000000000049210008DD
:1001B0004921000849210008492100084921000877
:0401C00049210008C9
:1001C40010B5054C237833B9044B13B10448AFF38D
:1001D40000800123237010BD0C00002000000000EB
:1001E400A421000808B5034B1BB103490348AFF32E
:1001F400008008BD0000000010000020A4210008B9
:1002040053B94AB9002908BF00281CBF4FF0FF3179
:100214004FF0FF3000F074B9ADF1080C6DE904CE75
:1002240000F006F8DDF804E0DDE9022304B07047CD
:100234002DE9F047089D04468E46002B4DD18A4295
:10024400944669D9B2FA82F252B101FA02F3C2F1C8
:10025400200120FA01F10CFA02FC41EA030E944059
:100264004FEA1C48210CBEFBF8F61FFA8CF708FB7A
:1002740016E341EA034306FB07F199420AD91CEB52
:10028400030306F1FF3080F01F81994240F21C8184
:10029400023E63445B1AA4B2B3FBF8F008FB1033CC
:1002A40044EA034400FB07F7A7420AD91CEB040401
:1002B40000F1FF3380F00A81A74240F207816444D1
:1002C400023840EA0640E41B00261DB1D440002356
:1002D400C5E900433146BDE8F0878B4209D9002DBA
:1002E40000F0EF800026C5E9000130463146BDE844
:1002F400F087B3FA83F6002E4AD18B4202D38242AE
:1003040000F2F980841A61EB030301209E46002D5C
:10031400E0D0C5E9004EDDE702B9FFDEB2FA82F2B1
:10032400002A40F09280A1EB0C014FEA1C471FFA0F
:100334008CFE0126200CB1FBF7F307FB131140EAF6
:1003440001410EFB03F0884208D91CEB010103F1C3
:10035400FF3802D2884200F2CB804346091AA4B285
:10036400B1FBF7F007FB101144EA01440EFB00FE59
:10037400A64508D91CEB040400F1FF3102D2A645BE
:1003840000F2BB800846A4EB0E0440EA03409CE75D
:10039400C6F12007B34022FA07FC4CEA030C20FA0A
:1003A40007F401FA06F31C43F9404FEA1C4900FA2A
:1003B40006F3B1FBF9F8200C1FFA8CFE09FB1811A7
:1003C40040EA014108FB0EF0884202FA06F20BD91A
:1003D4001CEB010108F1FF3A80F08880884240F26A
:1003E4008580A8F102086144091AA4B2B1FBF9F0AE
:1003F40009FB101144EA014100FB0EFE8E4508D9A9
:100404001CEB010100F1FF346CD28E456AD902382D
:10041400614440EA0840A0FB0294A1EB0E01A14212
:10042400C846A64656D353D05DB1B3EB080261EB80
:100434000E0101FA07F722FA06F3F1401F43C5E95A
:10044400007100263146BDE8F087C2F12003D84090
:100454000CFA02FC21FA03F3914001434FEA1C47D2
:100464001FFA8CFEB3FBF7F007FB10360B0C43EAC4
:10047400064300FB0EF69E4204FA02F408D91CEB74
:10048400030300F1FF382FD29E422DD90238634472
:100494009B1B89B2B3FBF7F607FB163341EA034112
:1004A40006FB0EF38B4208D91CEB010106F1FF3861
:1004B40016D28B4214D9023E6144C91A46EA004658
:1004C40038E72E46284605E70646E3E61846F8E6EA
:1004D4004B45A9D2B9EB020864EB0C0E0138A3E733
:1004E4004646EAE7204694E74046D1E7D0467BE714
:1004F400023B614432E7304609E76444023842E78C
:10050400704700BF084B00225A621A6842F0010289
:100514001A60054B5B6A8342FBD3034A136843F0BA
:1005240001031360704700BF000001402DE9F04152
:100534008AB00024059406940794089409940194BD
:10054400354B1A6B42F004021A631A6B02F0040270
:100554000192019A02941A6B42F080021A631A6B98
:1005640002F080020292029A03941A6B42F0010292
:100574001A631A6B02F001020392039A04941A6B31
:1005840042F002021A631B6B03F002030493049B00
:10059400DFF8908022464FF4E461404601F0F2FA1D
:1005A4001E4F224641F23011384601F0EBFA1C4D41
:1005B40022464FF48071284601F0E4FA4FF40053C8
:1005C40005934FF404130693079405A9284601F0F4
:1005D400EDF94FF4E4630593012606960794089415
:1005E40005A9404601F0E2F941F23013059306965D
:1005F4000794089405A9384601F0D8F94FF480739C
:10060400059306960794089405A9284601F0CEF9A7
:100614000AB0BDE8F08100BF003802400004024087
:1006240000080240000002402DE9F04182B001249C
:100634008DF8074000224FF48071344801F0A2FA8B
:10064400DFF8D8800A2322460DF10701404601F065
:1006540074FC2F4FFB682F4E33602F4D00224FF454
:100664008051284601F08EFA22464FF480512846E4
:1006740001F088FA2046FFF745FF42238DF8073042
:100684000A2322460DF10701404601F056FCFB689F
:10069400736000224FF48051284601F073FA224619
:1006A4004FF48051284601F06DFA2046FFF72AFFE7
:1006B40000248DF807401EE00A2301220DF10701F2
:1006C400164801F03AFC124BD968A21C114B43F8AE
:1006D4002210114D00224FF48051284601F052FAA5
:1006E40001224FF48051284601F04CFA0120FFF713
:1006F40009FF0134E4B2062CDED901224FF48071E3
:10070400024801F03FFA02B0BDE8F081000802405F
:100714000038004028000020000402404C00002063
:1007240072B6FEE708B50F480F4B03604FF48273AF
:10073400436000238360C36002220261012242619C
:100744004FF4007282613022C261802202624362ED
:1007540083620A23C36201F091FB00B908BDFFF76D
:10076400DFFF00BF4C0000200038004000B587B018
:100774000023029303930493059300930193134876
:10078400134A02602C22426083604FF6FF72C260FB
:100794000361836100F0ECFA90B94FF48053029343
:1007A40002A90A4800F01DFB60B9002300930193DD
:1007B4006946064800F094FB30B907B05DF804FBC5
:1007C400FFF7AEFFFFF7ACFFFFF7AAFFEC00002036
:1007D4000004004008B50A480A4B03604FF4E133B3
:1007E400436000238360C36003610C224261836120
:1007F400C36100F087FC00B908BDFFF791FF00BF9B
:10080400340100200044004000B587B00023029367
:10081400039304930593009301931448144A0260CC
:100824004722426083604FF6FF72C26003614361F6
:10083400836100F09DFA90B94FF48053029302A9AA
:100844000A4800F0CEFA60B9002300930193694688
:10085400064800F045FB30B907B05DF804FBFFF72C
:100864005FFFFFF75DFFFFF75BFF00BFA400002001
:100874000000014000B595B03422002107A801F022
:1008840087FC002302930393049305930693009338
:100894001F4A116C41F080511164126C02F08052B5
:1008A4000092009A01931B490A6822F4404242F4E0
:1008B40080420A600A6802F440420192019A0222CC
:1008C400079201210A9110210B910D920E93082396
:1008D4000F9380231093042311931292139207A869
:1008E40000F042FE80B90F230293022103910023FA
:1008F40004934FF480520592069302A800F09EFCE4
:1009040020B915B05DF804FBFFF70AFFFFF708FFF5
:10091400003802400070004038B501F0C7F9FFF715
:10092400A9FFFFF703FEFFF7FDFEFFF71FFFFFF729
:1009340051FFFFF769FF294C00224FF480712046D4
:1009440001F020F900224FF40071204601F01AF959
:10095400234D00221021284601F014F90122202100
:10096400284601F00FF900220821284601F00AF96F
:1009740001224FF48061204601F004F90024012093
:1009840001F0C0F9174D284600F050F901224FF448
:100994008071134801F0F6F82A6800235362536A01
:1009A400272BFCD900224FF480710D4801F0EAF89E
:1009B400632CE4D001342021084801F0E9F80A4806
:1009C400FFF732FE094B5B69BF2BF1D1642314227C
:1009D4000749084800F0C5FBEAE700BF00000240F1
:1009E40000040240EC0000204C00002028000020FD
:1009F400BC21000834010020FEE7FEE7FEE7FEE725
:100A0400FEE770477047704708B501F069F908BD03
:100A140000B583B0002100910C4B5A6C42F4804223
:100A24005A645A6C02F480420092009A01911A6C42
:100A340042F080521A641B6C03F080530193019BB3
:100A4400072001F0AFF803B05DF804FB0038024062
:100A54002DE9F04188B00023039304930593069392
:100A640007930268254B9A4202D008B0BDE8F08192
:100A74000024009403F500331A6C42F480421A6493
:100A84001A6C02F480420092009A01941A6B42F0AC
:100A940004021A631A6B02F004020192019A02948E
:100AA4001A6B42F002021A631B6B03F002030293F7
:100AB400029B0225039504950326069607230793B4
:100AC400DFF8408003A9404600F070FF042303933D
:100AD4000495059406960527079703A9404600F058
:100AE40065FF4FF480630393049505940696079776
:100AF40003A9034800F05AFFB7E700BF00380040DD
:100B0400000402400008024082B00368104A934285
:100B140004D0104A93420ED002B0704700230093D1
:100B24000D4B5A6C42F001025A645B6C03F00103F2
:100B34000093009BF0E700230193074B1A6C42F0EB
:100B440002021A641B6C03F002030193019BE3E7A6
:100B540000000140000400400038024000B589B0A4
:100B64000023039304930593069307930268154B9C
:100B74009A4202D009B05DF804FB0021019103F50B
:100B8400FA331A6C42F400321A641A6C02F400321A
:100B94000192019A02911A6B42F001021A631B6BD3
:100BA40003F001030293029B0C2303930223049397
:100BB400032306930723079303A9034800F0F6FED3
:100BC400D8E700BF004400400000024010B4036AAC
:100BD400046A24F001040462846924F0F00C4CEAF1
:100BE400021223F00A030B43826103625DF8044B93
:100BF400704710B4046A24F0100404628469036A20
:100C040024F4704C4CEA023223F0A00343EA0113AB
:100C1400826103625DF8044B7047836823F07003BC
:100C24000B4343F0070383607047000090F83D30A6
:100C3400DBB2012B32D1022380F83D300368194A1C
:100C4400934220D0B3F1804F1DD0A2F57C42934251
:100C540019D002F58062934215D002F58062934266
:100C640011D002F5784293420DD002F570529342AE
:100C740009D0A2F59432934205D01A6842F00102D9
:100C84001A60002070479A6802F00702062A07D00B
:100C94001A6842F001021A60002070470120704770
:100CA40000207047000001400368304A904212D08F
:100CB400B0F1804F0FD0A2F57C4290420BD002F5E8
:100CC4008062904207D002F58062904203D002F520
:100CD4007842904203D123F070034A681343234AB5
:100CE40090422AD0B0F1804F27D0A2F57C429042A6
:100CF40023D002F5806290421FD002F580629042B8
:100D04001BD002F57842904217D002F570529042FF
:100D140013D002F5806290420FD002F580629042B7
:100D24000BD0A2F59832904207D002F5806290422F
:100D340003D002F58062904203D123F44073CA6861
:100D4400134323F080034A69134303608B68C3622F
:100D54000B688362054B984203D003F58063984285
:100D640001D10B6903630123436170470000014013
:100D740040B310B5044690F83D30F3B1022384F833
:100D84003D30214651F8040BFFF78EFF012384F810
:100D9400463084F83E3084F83F3084F8403084F89C
:100DA400413084F8423084F8433084F8443084F885
:100DB400453084F83D30002010BD80F83C30FFF70A
:100DC400A3FEDBE70120704710B4846824F47F4C51
:100DD40042EA03220A4342EA0C0282605DF8044BB1
:100DE400704790F83C30012B78D010B504460123AD
:100DF40080F83C30022380F83D300268936823F485
:100E04007F4323F0770393600B68602B4CD029D881
:100E1400402B54D00CD9502B22D1CA6849680068A1
:100E2400FFF7D4FE50212068FFF7F7FE002005E00D
:100E3400202B0DD009D9302B0AD00120012384F8AE
:100E44003D30002384F83C3010BD0BB1102B05D18C
:100E540019462068FFF7E1FE0020EFE70120EDE7E7
:100E64000120EBE7B3F5805F34D0B3F5005F0CD11C
:100E7400CB684A6889680068FFF7A6FF2268936810
:100E840043F4804393600020D8E7702B24D1CB68CF
:100E94004A6889680068FFF797FF2268936843F0FF
:100EA400770393600020C9E7CA6849680068FFF7C0
:100EB400A0FE60212068FFF7B0FE0020BEE7CA68EC
:100EC40049680068FFF782FE40212068FFF7A5FE0D
:100ED4000020B3E70020B1E70120AFE7022070470C
:100EE40090F83C30012B3DD010B4012380F83C3005
:100EF400022380F83D3003685A689C6822F0700C25
:100F04000A6842EA0C025A600368174A93421AD0EC
:100F1400B3F1804F17D0A2F57C42934213D002F56F
:100F2400806293420FD002F5806293420BD002F5A7
:100F34007842934207D002F57052934203D0A2F54F
:100F44009432934204D124F080044A6814439C6090
:100F5400012380F83D30002380F83C3018465DF8CA
:100F6400044B7047022070470000014038B5044626
:100F74000268136923F44053C1680B431361836807
:100F84000269134342691343C2691A430168CB6877
:100F940023F4164323F00C031343CB600268536914
:100FA40023F4407381690B4353610368314A9342CC
:100FB40006D002F58062934202D000F0F5F901E018
:100FC40000F002FAE369B3F5004F29D000210318B9
:100FD40049411B1841F10001C90041EA5371DB008A
:100FE400181863684FEA83024FEA937341F10001D2
:100FF400FFF706F9204DA5FB00325109642303FBDA
:1010040011031B013233A5FB03235B0903F0F00238
:1010140002EB011203F00F03216813448B6038BD07
:101024000023021843EB0301121841F10001C90027
:1010340041EA5271D200101841F10001626892181D
:101044005B41FFF7DDF80C4DA5FB00325109642329
:1010540003FB1103DB003233A5FB03235B095A00B6
:1010640002F4F87202EB011203F00703216813443F
:101074008B60D4E7001001401F85EB512DE9F84344
:1010840005460F4616469946DDF820802C682468EC
:1010940037EA04030CBF4FF0010C4FF0000CB445C9
:1010A4002DD1B8F1FF3FF1D0B8F1000F05D000F019
:1010B40023FEA0EB09004045E8D92A6802F10C039D
:1010C40053E8003F23F4D0730C3242E80031002986
:1010D400F3D12A6802F1140353E8003F23F001031B
:1010E400143242E800310029F3D1202385F83D3041
:1010F40085F83E30002385F83C30032000E00020D2
:10110400BDE8F88358B310B5044690F83D300BB3EE
:10111400242384F83D302268D36823F40053D36039
:101124002046FFF723FF2268136923F490431361D9
:101134002268536923F02A0353612268D36843F475
:101144000053D36000202064202384F83D3084F8C9
:101154003E3010BD80F83C30FFF700FDD8E7012099
:1011640070472DE9F04182B01E4690F83D30DBB265
:10117400202B54D104460D469046002953D0002A12
:1011840053D090F83C30012B51D0012380F83C30EF
:1011940000230364212380F83D3000F0ADFD0746B1
:1011A400A4F82480A4F82680A368B3F5805F05D052
:1011B4004FF00008002384F83C3012E0236913B197
:1011C4004FF00008F6E7A8460025F3E738F8023B9D
:1011D4002268C3F308035360E28C92B2013A92B2DC
:1011E400E284E38C9BB273B100963B4600228021DB
:1011F4002046FFF743FFE0B9002DE7D015F8012B97
:1012040023685A60E8E700963B46002240212046C6
:10121400FFF734FF78B9202384F83D3000E0022042
:1012240002B0BDE8F0810120FAE70120F8E70220CE
:10123400F6E70320F4E70320F2E70000002800F0BB
:101244009B8070B50D4604464F4B1B6803F00F039B
:101254008B4208D2CBB24C4A1370136803F00F03CD
:101264008B4240F08B80236813F0020F17D013F0E9
:10127400040F04D0454A936843F4E0539360236811
:1012840013F0080F04D0414A936843F46043936019
:101294003E4A936823F0F003A1680B4393602368EC
:1012A40013F0010F32D06368012B21D09A1E012A5A
:1012B40025D9364A126812F0020F61D033498A6880
:1012C40022F0030213438B6000F016FD06462F4BF9
:1012D4009B6803F00C036268B3EB820F16D000F036
:1012E4000BFD801B41F288339842F0D9032042E081
:1012F400264A126812F4003FE0D101203BE0234A61
:10130400126812F0007FD9D1012034E01E4B1B6813
:1013140003F00F03AB4207D9EAB21B4B1A701B68E8
:1013240003F00F03AB422DD1236813F0040F06D052
:10133400164A936823F4E053E1680B4393602368EF
:1013440013F0080F07D0114A936823F4604321690E
:1013540043EAC103936000F047F80C4B9B68C3F366
:1013640003130B4AD35CD8400A4B18600A4B186825
:1013740000F076FC002070BD012070470120FAE7E0
:101384000120F8E70120F6E7003C02400038024063
:10139400D42100080800002004000020014B186834
:1013A400704700BF0800002008B5FFF7F7FF044BA3
:1013B4009B68C3F38223034AD35CD84008BD00BFB3
:1013C40000380240E421000808B5FFF7E7FF044BAA
:1013D4009B68C3F34233034AD35CD84008BD00BFC3
:1013E40000380240E421000808B55C4B9B6803F018
:1013F4000C03082B07D00C2B5BD0042B01D05848CE
:1014040008BD5848FCE7554B5A6802F03F025B6838
:1014140013F4800F2AD0514B5968C1F3881C4FEA4A
:101424004C11B1EB0C006EEB0E0E4FEA8E1343EA37
:1014340090638101091A63EB0E03DB0043EA5173E5
:10144400C90011EB0C0C43F10003590200234FEACD
:101454004C2041EADC51FEF7D3FE404B5B68C3F3FA
:10146400014301335B00B0FBF3F0C9E73B4B596820
:10147400C1F3881C4FEA4C11B1EB0C006EEB0E0E5D
:101484004FEA8E1343EA90638101091A63EB0E035A
:10149400DB0043EA5173C90011EB0C0C43F1000368
:1014A400990200234FEA8C2041EA9C51FEF7A8FEE2
:1014B400D3E72A4B5A6802F03F025B6813F4800FAB
:1014C40028D0264B5968C1F3881C4FEA4C11B1EB64
:1014D4000C006EEB0E0E4FEA8E1343EA906381010B
:1014E400091A63EB0E03DB0043EA5173C90011EBE5
:1014F4000C0C43F10003590200234FEA4C2041EA4B
:10150400DC51FEF77DFE154B5B68C3F30273B0FB41
:10151400F3F075E7114B5968C1F3881C4FEA4C117D
:10152400B1EB0C006EEB0E0E4FEA8E1343EA9063A0
:101534008101091A63EB0E03DB0043EA5173C9000E
:1015440011EB0C0C43F10003990200234FEA8C20A9
:1015540041EA9C51FEF754FED5E700BF0038024033
:101564000024F40000127A00002800F0018270B513
:1015740082B00446036813F0010F41D0994B9B6875
:1015840003F00C03042B32D0964B9B6803F00C033E
:10159400082B27D0934B9B6803F00C030C2B59D0DA
:1015A4006368B3F5803F5BD0B3F5A02F5ED08D4B5D
:1015B4001A6822F480321A601A6822F480221A60AF
:1015C4006368002B5CD000F097FB0546854B1B68D5
:1015D40013F4003F14D100F08FFB401B6428F5D9AD
:1015E4000320CCE17F4B5B6813F4800FD2D07D4B9A
:1015F4001B6813F4003F03D06368002B00F0BA812A
:10160400236813F0020F60D0764B9B6813F00C0F25
:101614004AD0744B9B6803F00C03082B3FD0714BEA
:101624009B6803F00C030C2B69D0E368002B75D086
:101634006D4B01221A6000F05FFB0546694B1B6885
:1016440013F0020F61D100F057FB401B0228F5D9BB
:10165400032094E1634B5B6813F4800FA0D0C6E7CA
:10166400604A136843F480331360A9E75D4B1A683A
:1016740042F480221A601A6842F480321A609FE7AA
:1016840000F03AFB0546574B1B6813F4003FB7D0F4
:1016940000F032FB401B6428F5D903206FE1514B65
:1016A4005B6813F4800FBAD14E4B1B6813F0020F22
:1016B40003D0E368012B40F05F814A4A136823F0AA
:1016C400F803216943EAC1031360236813F0080F88
:1016D40049D06369002B33D0434B0122C3F8802ED9
:1016E40000F00AFB05463F4B5B6F13F0020F3AD143
:1016F40000F002FB401B0228F5D903203FE1394BDF
:101704005B6813F4800F90D1CEE7364A136823F058
:10171400F803216943EAC1031360D6E7324B002280
:101724001A6000F0E9FA05462E4B1B6813F0020F0D
:10173400CBD000F0E1FA401B0228F5D903201EE1CA
:10174400294B0022C3F8802E00F0D6FA0546254B1B
:101754005B6F13F0020F06D000F0CEFA401B022894
:10176400F5D903200BE1236813F0040F76D01D4B49
:101774001B6C13F0805F33D100230193194B1A6C57
:1017840042F080521A641B6C03F080530193019B56
:101794000125164B1B6813F4807F29D0A368012B05
:1017A4003AD0052B3ED00F4B1A6F22F001021A6774
:1017B4001A6F22F004021A67A368002B3CD000F0D1
:1017C4009BFA0646074B1B6F13F0020F45D100F03E
:1017D40093FA801B41F288339842F3D90320CEE078
:1017E4000025D6E700380240000047420070004060
:1017F4006B4A136843F48073136000F07DFA064665
:10180400674B1B6813F4807FC8D100F075FA801B06
:101814000228F5D90320B2E0624A136F43F00103B2
:101824001367C9E75F4B1A6F42F004021A671A6F15
:1018340042F001021A67BFE700F05EFA0646594B10
:101844001B6F13F0020F08D000F056FA801B41F210
:1018540088339842F3D9032091E0EDB9A369002BB2
:1018640000F08C804F4A926802F00C02082A54D08F
:10187400022B17D04C4B00221A6600F03DFA0446A6
:10188400484B1B6813F0007F45D000F035FA001B6D
:101894000228F5D9032072E0424A136C23F08053E6
:1018A4001364DBE7404B00221A6600F025FA054674
:1018B4003C4B1B6813F0007F06D000F01DFA401B60
:1018C4000228F5D903205AE0E369226A1343626AC5
:1018D40043EA8213A26A5208013A43EA0243E26AE3
:1018E40043EA0263226B43EA02732E4A53602E4B8F
:1018F40001221A6600F000FA04462A4B1B6813F012
:10190400007F06D100F0F8F9001B0228F5D9032066
:1019140035E0002033E0002031E0012B31D0214BB1
:101924005B6803F48001E26991422CD103F03F0229
:10193400216A8A4229D1616A47F6C0721A40B2EB21
:10194400811F24D103F44031A26A5208013AB1EB59
:10195400024F1ED103F07062E16AB2EB016F1AD13B
:1019640003F0E043226BB3EB027F16D1002006E0C4
:1019740001207047012002E0012000E0002002B0B5
:1019840070BD0120FBE70120F9E70120F7E7012002
:10199400F5E70120F3E70120F1E70120EFE700BFBD
:1019A40000700040003802400000474200230F2B23
:1019B40000F2DE8070B582B060E085685E000324CA
:1019C400B44025EA0405CC68B4402C4384604568DF
:1019D40025EA02054C68C4F300129A402A43426087
:1019E4005AE0DC08083450F8246003F0070295003C
:1019F4000F22AA4026EA020E0A69AA4042EA0E020F
:101A040040F824205CE0062200E0002202FA0EF2F4
:101A14002A430234574D45F82420574A94686FEA04
:101A24000C0224EA0C054E6816F4801F01D04CEA1F
:101A34000405514CA560E46802EA04054E6816F4F6
:101A4400001F01D04CEA04054B4CE560646802EACF
:101A540004054E6816F4003F01D04CEA0405464CD8
:101A64006560246822404D6815F4803F01D04CEA3B
:101A74000402414C226001330F2B77D801229A4093
:101A84000C6804EA020C32EA0404F4D14C6804F051
:101A94000304013C012C90D94A6802F00302032A92
:101AA40009D0C4685D000322AA4024EA02048A68BB
:101AB400AA402243C2604A6802F00302022A90D07C
:101AC40004684FEA430E032202FA0EF224EA0204E7
:101AD4004A6802F0030202FA0EF2224302604A68E4
:101AE40012F4403FC7D000220192244A546C44F4BB
:101AF40080445464526C02F480420192019A9C081E
:101B0400A51C1C4A52F8255003F003024FEA820E2A
:101B14000F2202FA0EF225EA0205194A90423FF416
:101B240074AF02F58062904216D002F58062904252
:101B340014D002F58062904212D002F58062904285
:101B440010D002F5806290420ED002F5806290427D
:101B54003FF459AF072259E7012257E7022255E71C
:101B6400032253E7042251E705224FE702B070BD78
:101B7400704700BF00380140003C0140003802407B
:101B8400000002400AB18161704709048161704715
:101B9400436901EA030221EA030141EA0241816146
:101BA40070470000074AD36823F4E0631B041B0C4E
:101BB400000200F4E060034343F0BF6343F40033E6
:101BC400D360704700ED00E000B5194BDB68C3F348
:101BD4000223C3F1070CBCF1040F28BF4FF0040C1F
:101BE40003F1040EBEF1060F18D9033B4FF0FF3E7C
:101BF4000EFA0CFC21EA0C0199400EFA03F322EAD6
:101C04000303194300280BDB0901C9B200F160404A
:101C140000F5614080F800135DF804FB0023E5E75C
:101C240000F00F000901C9B2024B1954F4E700BFD8
:101C340000ED00E014ED00E00138B0F1807F0BD23C
:101C44004FF0E0235861054AF02182F82310002068
:101C5400986107221A6170470120704700ED00E087
:101C640010B504460E4B18784FF47A73B3FBF0F3B7
:101C74000C4A1068B0FBF3F0FFF7DEFF68B90F2CD5
:101C840001D901200AE0002221464FF0FF30FFF77E
:101C94009BFF054B1C60002000E0012010BD00BF2D
:101CA40000000020080000200400002008B50B4BB1
:101CB4001A6842F400721A601A6842F480621A6068
:101CC4001A6842F480721A600320FFF76BFF002049
:101CD400FFF7C6FFFEF79CFE002008BD003C024053
:101CE400034A1168034B1B780B441360704700BF11
:101CF4007801002000000020014B1868704700BFE5
:101D04007801002038B50446FFF7F6FF0546B4F124
:101D1400FF3F02D0044B1B781C44FFF7EDFF401B30
:101D2400A042FAD338BD00BF00000020034AD2F815
:101D3400883043F47003C2F88830704700ED00E047
:101D44002DE9F04782B00546884617461E46FFF740
:101D5400D3FF0A9B1B1A03EB0609FFF7CDFF82464C
:101D64002B4B1B68C3F3CB3309FB03F301932B68A1
:101D74009C6838EA04030CBF4FF0010C4FF0000CD0
:101D8400BC4540D0B6F1FF3FF1D0FFF7B5FFA0EB63
:101D94000A0048450AD2B9F1000F07D0019A02B1EE
:101DA4004A46019B013B01939146E0E72A68536848
:101DB40023F0E00353606B68B3F5827F0BD0AB6A0A
:101DC400B3F5005F14D0012385F85130002385F862
:101DD4005030032018E0AB68B3F5004F02D0B3F5E0
:101DE400806FECD12A68136823F040031360E6E7A0
:101DF4002A68136823F4005313602A68136843F4B1
:101E040000531360DFE7002002B0BDE8F08700BF95
:101E14000800002010B584B00446164B1868164B11
:101E2400A3FB0030400D4FF47A7303FB00F00390E2
:101E34006368B3F5827F0BD0039BBBB1039B013B6B
:101E4400039323689B6813F0800FF5D100200EE004
:101E540000920B46002280212046FFF771FF30B12B
:101E6400636D43F020036365032000E0002004B0A9
:101E740010BD00BF08000020819F5E1600285AD0C4
:101E840010B50446436A33B94368B3F5827F05D07D
:101E94000023C36102E00023036143610023A362C2
:101EA40094F85130002B40D0022384F8513022683A
:101EB400136823F040031360636803F48273A26819
:101EC40002F404421343E26802F4006213432269F9
:101ED40002F002021343626902F001021343A26991
:101EE40002F400721343E26902F038021343226AD7
:101EF40002F080021343A26A02F4005221681343E1
:101F04000B60638B03F00403626A02F01002216821
:101F140013434B602268D36923F40063D361002028
:101F24006065012384F8513010BD84F85030204698
:101F3400FEF78EFDB8E7012070472DE9F04383B02A
:101F44001D4690F85030012B00F0D180044688469D
:101F54009146012380F85030FFF7CEFE074694F8EF
:101F64005160F6B2012E40F0AF80B8F1000F00F0DE
:101F7400AC80B9F1000F00F0A880032384F851303D
:101F840000236365C4F83080A4F83490A4F8369034
:101F9400A363A387E38763642364A368B3F5004F53
:101FA4001ED023681A6812F0400F03D11A6842F059
:101FB40040021A60E368B3F5006F1CD0636813B184
:101FC400B9F1010F52D1226B236812781A73236B73
:101FD40001332363E38E9BB2013B9BB2E38645E06E
:101FE4002268136823F0400313602268136843F4E3
:101FF40080431360D5E7636813B1B9F1010F16D1BB
:10200400226B23681288DA60236B02332363E38E26
:102014009BB2013B9BB2E38609E0FFF76DFEC01B58
:10202400A84202D3B5F1FF3F59D1002D59D0E38E18
:102034009BB2002B33D023689A6812F0020FECD0C5
:10204400226B1288DA60236B02332363E38E9BB224
:10205400013B9BB2E386EAE7FFF74EFEC01BA842B2
:1020640002D3B5F1FF3F3ED1002D3ED0E38E9BB2AB
:10207400ABB123689A6812F0020FEDD0226B12788C
:102084001A73236B01332363B4F836C01FFA8CFC34
:102094000CF1FF3C1FFA8CFCA4F836C0E6E73A4684
:1020A40029462046FFF7B6FE08B120236365A368DE
:1020B40033B901932368DA6801929B680193019B09
:1020C400636D13B9002600E00226012384F8513021
:1020D400002384F85030304603B0BDE8F083032673
:1020E400F3E70326F1E70326EFE70326EDE70226ED
:1020F400F1E70000DFF834D00D480E490E4A002302
:1021040002E0D458C4500433C4188C42F9D30B4AA7
:102114000B4C002301E013600432A242FBD3FFF70F
:1021240005FE00F011F8FEF7F7FB704700000220EF
:10213400000000200C000020FC2100080C000020FE
:102144007C010020FEE7000070B50D4D0D4C641BB2
:10215400A4100026A64209D10B4D0C4C00F020F827
:10216400641BA4100026A64205D170BD55F8043B9B
:1021740098470136EEE755F8043B98470136F2E7F5
:10218400F4210008F4210008F4210008F8210008D3
:1021940002440346934200D1704703F8011BF9E758
:1021A400F8B500BFF8BC08BC9E467047F8B500BF40
:0821B400F8BC08BC9E46704710
:1021BC005820686173206265656E20507265737378
:1021CC0065640D0A00000000000000000000000023
:1021DC0001020304060708090000000001020304C1
:0821EC0048E0FF7F0100000044
:0421F400E9010008F5
:0421F800C501000815
:0C21FC0001000000100000000024F400AE
:04000005080020F9D6
:00000001FF
